S00F00005461736B302E302E73726563F4
S11300000C9439000C946B030C9456000C94560019
S11300100C9456000C9456000C94C9040C945F0480
S11300200C9456000C949B040C9456000C940804F5
S11300300C9456000C94AE050C9456000C94E505F3
S11300400C94A2030C9456000C9456000C94560085
S11300500C94560005A84CCDB2D44EB93836A9023A
S11300600C50B9918688083CA6AAAA2ABE000000B2
S1130070803F11241FBECFE5D8E0DEBFCDBF10E026
S1130080A0E6B0E0E6E4F3E102C005900D92A837E3
S1130090B107D9F720E0A8E7B0E001C01D92A43C65
S11300A0B207E1F70E9458000C94A1090C940000D7
S11300B0CF93DF93CDB7DEB70E943A060E94670064
S11300C00E94020680E090E0DF91CF910895CF93E3
S11300D0DF93CDB7DEB783E30E94840082E30E94FE
S11300E0840088E20E9484008CE00E94840081E005
S11300F00E94840086E00E94840082E00E948400C2
S11301000000DF91CF910895CF93DF93CDB7DEB791
S1130110AB970FB6F894DEBF0FBECDBF8BA760E0E0
S113012081E00E94480260E082E00E9448028BA5C0
S113013082958F708170682F83E00E9448028BA59E
S11301408295869587708170682F84E00E944802AA
S11301508BA582958695869583708170682F85E03E
S11301600E9448028BA5881F8827881F682F86E075
S11301700E94480261E082E00E94480280E090E030
S1130180A0E8BFE389839A83AB83BC8320E030E09B
S11301904AE755E469817A818B819C810E94020837
S11301A0DC01CB0189A39AA3ABA3BCA320E030E07C
S11301B040E85FE369A17AA18BA19CA10E94540746
S11301C088232CF481E090E09EA38DA33FC020E01F
S11301D03FEF4FE757E469A17AA18BA19CA10E944C
S11301E0FD0718164CF520E030E040E251E4698147
S11301F07A818B819C810E940208DC01CB01BC01C5
S1130200CD010E945907DC01CB019EA38DA30FC031
S113021080E991E098A78FA38FA198A50197F1F7A2
S113022098A78FA38DA19EA101979EA38DA38DA1B5
S11302309EA1892B69F714C069A17AA18BA19CA105
S11302400E945907DC01CB019EA38DA38DA19EA121
S11302509AA789A789A59AA50197F1F79AA789A7CB
S113026060E082E00E9448028BA58170682F83E0E1
S11302700E9448028BA586958170682F84E00E94B5
S113028048028BA5869586958170682F85E00E942B
S113029048028BA58695869586958170682F86E0A1
S11302A00E94480261E082E00E94480280E090E0FF
S11302B0A0E8BFE38D839E83AF83B88720E030E05E
S11302C04AE755E46D817E818F8198850E940208FA
S11302D0DC01CB018F8B988FA98FBA8F20E030E09F
S11302E040E85FE36F89788D898D9A8D0E94540769
S11302F088232CF481E090E09C8F8B8F3FC020E01A
S11303003FEF4FE757E46F89788D898D9A8D0E946E
S1130310FD0718164CF520E030E040E251E46D8111
S11303207E818F8198850E940208DC01CB01BC018B
S1130330CD010E945907DC01CB019C8F8B8F0FC02C
S113034080E991E09E8F8D8F8D8D9E8D0197F1F7C1
S11303509E8F8D8F8B8D9C8D01979C8F8B8F8B8D1A
S11303609C8D892B69F714C06F89788D898D9A8D3E
S11303700E945907DC01CB019C8F8B8F8B8D9C8D48
S113038098A38F8F8F8D98A10197F1F798A38F8FE2
S113039060E082E00E94480280E090E0A0EAB0E4DD
S11303A089879A87AB87BC8720E030E04AE755E429
S11303B069857A858B859C850E940208DC01CB01C6
S11303C08D879E87AF87B88B20E030E040E85FE3FD
S11303D06D857E858F8598890E94540788232CF427
S11303E081E090E09A8B898B3FC020E03FEF4FE79C
S11303F057E46D857E858F8598890E94FD071816C0
S11304004CF520E030E040E251E469857A858B8543
S11304109C850E940208DC01CB01BC01CD010E9435
S11304205907DC01CB019A8B898B0FC080E991E0DD
S11304309C8B8B8B8B899C890197F1F79C8B8B8B85
S113044089899A8901979A8B898B89899A89892BB9
S113045069F714C06D857E858F8598890E94590738
S1130460DC01CB019A8B898B89899A899E8B8D8B30
S11304708D899E890197F1F79E8B8D8B0000AB9639
S11304800FB6F894DEBF0FBECDBFDF91CF910895B4
S1130490CF93DF9300D000D0CDB7DEB78B836C83CE
S11304A019821A828B8186958695869589838B819C
S11304B087708A838C81882F90E0009709F46BC041
S11304C0019709F0D4C08981882F90E0813091058B
S11304D011F1823091051CF4892B41F05BC082300C
S11304E0910571F1039709F440C054C08BE390E087
S11304F02BE330E0F9012081622F2A81422F50E062
S113050021E030E002C0220F331F4A95E2F7262B88
S1130510FC0120833FC088E390E028E330E0F90148
S11305202081622F2A81422F50E021E030E002C076
S1130530220F331F4A95E2F7262BFC0120832AC0A1
S113054085E390E025E330E0F9012081622F2A81E0
S1130550422F50E021E030E002C0220F331F4A95C1
S1130560E2F7262BFC01208315C082E390E022E30E
S113057030E0F9012081622F2A81422F50E021E0EE
S113058030E002C0220F331F4A95E2F7262BFC010C
S1130590208300006CC08981882F90E08130910510
S11305A019F1823091051CF4892B41F05FC082302F
S11305B0910581F1039709F443C058C08BE390E09F
S11305C02BE330E0F9012081622F2A81422F50E091
S11305D021E030E002C0220F331F4A95E2F7209554
S11305E02623FC01208342C088E390E028E330E026
S11305F0F9012081622F2A81422F50E021E030E06E
S113060002C0220F331F4A95E2F720952623FC01EE
S113061020832CC085E390E025E330E0F9012081BC
S1130620622F2A81422F50E021E030E002C0220FE5
S1130630331F4A95E2F720952623FC01208316C038
S113064082E390E022E330E0F9012081622F2A81E5
S1130650422F50E021E030E002C0220F331F4A95C0
S1130660E2F720952623FC0120830000000000000F
S11306700F900F900F900F90DF91CF910895CF932B
S1130680DF93CDB7DEB783E590E023E530E0F901F1
S11306902081277FFC01208383E590E023E530E07F
S11306A0F90120812F7BFC01208389E590E029E575
S11306B030E0F90120812160FC01208383E590E092
S11306C023E530E0F90120812560FC01208300004E
S11306D0DF91CF9108951F920F9200905F000F92C7
S11306E011242F933F934F935F936F937F938F9333
S11306F09F93AF93BF93EF93FF93CF93DF93CDB7C4
S1130700DEB78091940090919500892B31F080910F
S1130710940090919500FC0109950000DF91CF9120
S1130720FF91EF91BF91AF919F918F917F916F91C5
S11307305F914F913F912F910F9000925F000F9026
S11307401F9018951F920F9200905F000F92112432
S11307502F933F934F935F936F937F938F939F93C5
S1130760AF93BF93EF93FF93CF93DF9300D000D069
S1130770CDB7DEB78091B2009091B300892B79F1A7
S113078084E290E0FC0180819181CC01A0E0B0E0A2
S113079089839A83AB83BC8329813A814B815C81B1
S11307A088E893E1DC010E948709DC01CB012FEF8B
S11307B033E040E050E0BC01CD010E946509DA015C
S11307C0C9018093780090937900A0937A00B09344
S11307D07B008091B2009091B300FC010995000068
S11307E00F900F900F900F90DF91CF91FF91EF91A9
S11307F0BF91AF919F918F917F916F915F914F9135
S11308003F912F910F9000925F000F901F901895C9
S11308101F920F9200905F000F9211242F933F9329
S11308204F935F936F937F938F939F93AF93BF93F4
S1130830EF93FF93CF93DF93CDB7DEB78091C000E2
S11308408F5F8093C0008091C000282F30E040E08B
S113085050E080917C0090917D00A0917E00B09149
S11308607F00281739074A075B07A1F48091A80085
S11308709091A900FC0109951092C00022E530E096
S11308808091800090918100A0918200B0918300BA
S1130890F90180830000DF91CF91FF91EF91BF9127
S11308A0AF919F918F917F916F915F914F913F9104
S11308B02F910F9000925F000F901F9018951F9238
S11308C00F9200905F000F9211242F933F934F9348
S11308D05F936F937F938F939F93AF93BF93EF93A4
S11308E0FF93CF93DF93CDB7DEB78091C1008F5FC5
S11308F08093C1008091C100813041F48091A000B7
S11309009091A100FC0109951092C1000000DF91B3
S1130910CF91FF91EF91BF91AF919F918F917F9173
S11309206F915F914F913F912F910F9000925F00D3
S11309300F901F9018951F920F9200905F000F92D6
S113094011248F939F93AF93BF93CF93DF93CDB72E
S1130950DEB78091BC009091BD00A091BE00B09123
S1130960BF000196A11DB11D8093BC009093BD00F2
S1130970A093BE00B093BF000000DF91CF91BF9160
S1130980AF919F918F910F9000925F000F901F90F5
S113099018951F920F9200905F000F921124EF920E
S11309A0FF920F931F932F933F934F935F936F93F4
S11309B07F938F939F93AF93BF93EF93FF93CF93C3
S11309C0DF93CDB7DEB78091900090919100A09114
S11309D09200B09193000196A11DB11D80939000E7
S11309E090939100A0939200B09393008091900013
S11309F090919100A0919200B09193000197A1056C
S1130A00B10511F586E490E0FC0180819181CC016F
S1130A10A0E0B0E08093840090938500A0938600CA
S1130A20B09387001092BC001092BD001092BE00DB
S1130A301092BF008EE490E02EE430E0F9012081B2
S1130A402F7BFC01208371C08091900090919100D4
S1130A50A0919200B09193000297A105B10569F5A8
S1130A6086E490E0FC01808191817C0100E010E04B
S1130A702091BC003091BD004091BE005091BF0058
S1130A808FEF9FEFDC010E948709DC01CB018E0D03
S1130A909F1DA01FB11F8093880090938900A0938D
S1130AA08A00B0938B008EE490E02EE430E0F901EC
S1130AB020812064FC01208338C0809190009091B3
S1130AC09100A0919200B09193000397A105B10504
S1130AD061F586E490E0FC01808191817C0100E075
S1130AE010E02091BC003091BD004091BE005091B7
S1130AF0BF008FEF9FEFDC010E948709DC01CB016F
S1130B008E0D9F1DA01FB11F80938C0090938D00AC
S1130B10A0938E00B0938F0089E590E029E530E042
S1130B20F90120812F7DFC0120830000DF91CF910A
S1130B30FF91EF91BF91AF919F918F917F916F91B1
S1130B405F914F913F912F911F910F91FF90EF90E3
S1130B500F9000925F000F901F9018951F920F92B4
S1130B6000905F000F9211242F933F934F935F9354
S1130B706F937F938F939F93AF93BF93EF93FF9361
S1130B80CF93DF93CDB7DEB78091AC009091AD00E9
S1130B90892B31F08091AC009091AD00FC01099556
S1130BA00000DF91CF91FF91EF91BF91AF919F91A1
S1130BB08F917F916F915F914F913F912F910F9002
S1130BC000925F000F901F9018951F920F92009053
S1130BD05F000F9211248F93CF93DF93CDB7DEB7CD
S1130BE081E08093C2008091C3008F5F8093C30033
S1130BF00000DF91CF918F910F9000925F000F90D2
S1130C001F901895CF93DF93CDB7DEB72A970FB611
S1130C10F894DEBF0FBECDBF0E943F038BED9FE073
S1130C20A9E4BFE38B839C83AD83BE8361E080E151
S1130C300E9448021A82198213C08B819C81AD8163
S1130C40BE81BC01CD010E946F08DC01CB018F8302
S1130C509887A987BA8789819A8101969A8389831B
S1130C6089819A81883E934040F360E080E10E944C
S1130C704802D4CFCF93DF9300D000D0CDB7DEB7F6
S1130C8019821A821B821C82198202C18981882FCF
S1130C9090E0880F991F805A9F4FFC0180818695B0
S1130CA0869586958A838981882F90E0880F991F7D
S1130CB0805A9F4FFC01808187708B838981882FA4
S1130CC090E0880F991F8F599F4FFC0180818C837E
S1130CD08C81882F90E0009709F46BC0019709F08C
S1130CE0D4C08A81882F90E08130910511F182303F
S1130CF091051CF4892B41F05BC08230910571F1A0
S1130D00039709F440C054C08AE390E02AE330E03A
S1130D10F9012081622F2B81422F50E021E030E045
S1130D2002C0220F331F4A95E2F7262BFC012083D1
S1130D303FC087E390E027E330E0F9012081622F90
S1130D402B81422F50E021E030E002C0220F331FFC
S1130D504A95E2F7262BFC0120832AC084E390E025
S1130D6024E330E0F9012081622F2B81422F50E0EF
S1130D7021E030E002C0220F331F4A95E2F7262B10
S1130D80FC01208315C081E390E021E330E0F90108
S1130D902081622F2B81422F50E021E030E002C0FD
S1130DA0220F331F4A95E2F7262BFC012083000013
S1130DB06CC08A81882F90E08130910519F18230CE
S1130DC091051CF4892B41F05FC08230910581F1BB
S1130DD0039709F443C058C08AE390E02AE330E063
S1130DE0F9012081622F2B81422F50E021E030E075
S1130DF002C0220F331F4A95E2F720952623FC01F7
S1130E00208342C087E390E027E330E0F9012081AA
S1130E10622F2B81422F50E021E030E002C0220FEC
S1130E20331F4A95E2F720952623FC0120832CC02A
S1130E3084E390E024E330E0F9012081622F2B81E8
S1130E40422F50E021E030E002C0220F331F4A95C8
S1130E50E2F720952623FC01208316C081E390E06D
S1130E6021E330E0F9012081622F2B81422F50E0F1
S1130E7021E030E002C0220F331F4A95E2F72095AB
S1130E802623FC0120830000000089818F5F898371
S1130E9089818C3008F4FACE00000F900F900F90E7
S1130EA00F90DF91CF9108950E94880708F481E0A4
S1130EB008950E94DC0788F09F5798F0B92F99276E
S1130EC0B751B0F0E1F0660F771F881F991F1AF031
S1130ED0BA95C9F714C0B13091F00E94F607B1E099
S1130EE008950C94F607672F782F8827B85F39F098
S1130EF0B93FCCF3869577956795B395D9F73EF4CA
S1130F0090958095709561957F4F8F4F9F4F089571
S1130F10990F0008550FAA0BE0E8FEEF1616170606
S1130F20E807F907C0F012161306E407F50798F06E
S1130F30621B730B840B950B39F40A2661F0232B87
S1130F40242B252B21F408950A2609F4A140A69503
S1130F508FEF811D811D089597F99F6780E870E0E8
S1130F6060E008959FEF80EC089500240A9416161B
S1130F70170618060906089500240A941216130683
S1130F80140605060895092E0394000C11F4882311
S1130F9052F0BB0F40F4BF2B11F460FF04C06F5F2D
S1130FA07F4F8F4F9F4F089557FD9058440F551F03
S1130FB059F05F3F71F04795880F97FB991F61F0D7
S1130FC09F3F79F087950895121613061406551F4E
S1130FD0F2CF4695F1DF08C0161617061806991FBA
S1130FE0F1CF86957105610508940895E894BB27AF
S1130FF066277727CB0197F908950E94880708F49C
S11310008FEF08950E9415080C94C3070E94B5073A
S113101038F00E94BC0720F0952311F00C94AC0723
S11310200C94B20711240C94F7070E94D40770F3B0
S1131030959FC1F3950F50E0551F629FF001729F79
S1131040BB27F00DB11D639FAA27F00DB11DAA1F88
S1131050649F6627B00DA11D661F829F2227B00DD5
S1131060A11D621F739FB00DA11D621F839FA00D60
S1131070611D221F749F3327A00D611D231F849FB0
S1131080600D211D822F762F6A2F11249F57504007
S11310909AF0F1F088234AF0EE0FFF1FBB1F661F82
S11310A0771F881F91505040A9F79E3F510580F04B
S11310B00C94AC070C94F7075F3FE4F3983ED4F329
S11310C0869577956795B795F795E7959F5FC1F7EF
S11310D0FE2B880F911D9695879597F908959F93F8
S11310E00E9479080F9007FCEE5F0C94A2080C9400
S11310F0B2070E94DC07D8F3E894E0E0BB279F57CF
S1131100F0F02AED3FE049EC06C0EE0FBB0F661F7E
S1131110771F881F28F0B23A62077307840728F004
S1131120B25A620B730B840BE3959A9572F780386D
S113113030F49A95BB0F661F771F881FD2F790482B
S11311400C941E09EF93E0FF07C0A2EA2AED3FE0EA
S113115049EC5FEB0E94C7080E94C3070F900394F9
S113116001FC9058E4E5F0E00C942A090E94B507CC
S113117038F00E94BC0720F039F49F3F19F426F49C
S11311800C94B2070EF4E095E7FB0C94AC07E92F3E
S11311900E94D40758F3BA176207730784079507A8
S11311A020F079F4A6F50C94F6070EF4E0950B2ED6
S11311B0BA2FA02D0B01B90190010C01CA01A001A5
S11311C01124FF27591B99F0593F50F4503E68F100
S11311D01A16F040A22F232F342F4427585FF3CF41
S11311E0469537952795A795F0405395C9F77EF412
S11311F01F16BA0B620B730B840BBAF09150A1F05B
S1131200FF0FBB1F661F771F881FC2F70EC0BA0FE0
S1131210621F731F841F48F4879577956795B79568
S1131220F7959E3F08F0B0CF9395880F08F0992763
S1131230EE0F9795879508959F3F31F0915020F4D4
S1131240879577956795B795880F911D969587959E
S113125097F908959F938F937F936F93FF93EF93E1
S11312609B01AC010E940208EF91FF910E943E098C
S11312702F913F914F915F910C940208DF93CF938C
S11312801F930F93FF92EF92DF927B018C0168947E
S113129006C0DA2EEF010E941508FE01E894A5911C
S11312A02591359145915591A6F3EF010E94C70808
S11312B0FE019701A801DA9469F7DF90EF90FF909F
S11312C00F911F91CF91DF910895A1E21A2EAA1BCD
S11312D0BB1BFD010DC0AA1FBB1FEE1FFF1FA217E2
S11312E0B307E407F50720F0A21BB30BE40BF50BDF
S11312F0661F771F881F991F1A9469F76095709568
S1131300809590959B01AC01BD01CF0108950E9489
S11313109209A59F900DB49F900DA49F800D911DDF
S113132011240895A29FB001B39FC001A39F700D23
S1131330811D1124911DB29F700D811D1124911DD9
S10913400895F894FFCFAC
S11313460101020103010401050106010B011D014E
S10B1356100111010000000068
S9030000FC
